:030000000209C032
:0C09C000787FE4F6D8FD75810B0208007A
:10089A002020534D41525420484F4D4520200020DE
:1008AA002053595354454D20494E495420004C3A3F
:1008BA004F4E20004C3A4F46460020463A4F4E20B3
:1008CA000020463A4F4646005345433A20494E5483
:1008DA005255444552212120005345433A20534161
:0A08EA004645202020202020200099
:100800001208F47F801209967BFF7A08799A120900
:100810001B7FC01209967BFF7A0879A912091B7FFA
:10082000D07E071209407F0112099620900FD2B0A6
:100830007F801209967BFF7A0879B8800DC2B07F5D
:10084000801209967BFF7A0879BE12091B30910F3E
:10085000D2B17F861209967BFF7A0879C4800DC2D7
:10086000B17F861209967BFF7A0879CB12091B307B
:10087000920FD2B27FC01209967BFF7A0879D2809C
:100880000DC2B27FC01209967BFF7A0879E3120984
:0A0890001B7F647E00120940809176
:10096000EF54F0FFE5A0540F4FF5A0D2A17F017E18
:0D09700000120940C2A17F017E0002094073
:100996008F08C2A0E50854F0FF120960E508C454A8
:0509A600F0FF020960F2
:1009AB008F0BD2A0E50B54F0FF120960E50BC4547A
:0509BB00F0FF020960DD
:1008F4007F147E001209407F021209967F28120994
:10090400967F0C1209967F061209967F01120996AA
:070914007F027E0002094092
:10091B008B088A09890AAB08AA09A90A12097D6002
:10092B0013050AE50A7002050914F912097DFF1275
:05093B0009AB80E2227F
:10094000E4FDFCC3ED9FEC9E5015E4FBFA0BBB00ED
:0F095000010AEB64704A70F50DBD00010C80E4E4
:01095F002275
:10097D00BB010689828A83E0225002E722BBFE0278
:09098D00E32289828A83E49322AB
:00000001FF
